{
  "contractName": "Adoption",
  "abi": [
    {
      "constant": false,
      "inputs": [
        {
          "name": "s",
          "type": "string"
        },
        {
          "name": "t",
          "type": "string"
        }
      ],
      "name": "setWord",
      "outputs": [],
      "payable": false,
      "stateMutability": "nonpayable",
      "type": "function"
    },
    {
      "constant": true,
      "inputs": [],
      "name": "getAllWord",
      "outputs": [
        {
          "name": "",
          "type": "string"
        },
        {
          "name": "",
          "type": "string"
        }
      ],
      "payable": false,
      "stateMutability": "view",
      "type": "function"
    }
  ],
  "bytecode": "0x6060604052341561000f57600080fd5b61064e8061001e6000396000f30060606040526004361061004c576000357c0100000000000000000000000000000000000000000000000000000000900463ffffffff16806389e32cbc146100515780638c595a951461014b575b600080fd5b341561005c57600080fd5b6100646101eb565b604051808060200180602001838103835285818151815260200191508051906020019080838360005b838110156100a857808201518184015260208101905061008d565b50505050905090810190601f1680156100d55780820380516001836020036101000a031916815260200191505b50838103825284818151815260200191508051906020019080838360005b8381101561010e5780820151818401526020810190506100f3565b50505050905090810190601f16801561013b5780820380516001836020036101000a031916815260200191505b5094505050505060405180910390f35b341561015657600080fd5b6101e9600480803590602001908201803590602001908080601f0160208091040260200160405190810160405280939291908181526020018383808284378201915050505050509190803590602001908201803590602001908080601f016020809104026020016040519081016040528093929190818152602001838380828437820191505050505050919050506103a6565b005b6101f3610489565b6101fb610489565b60008060008054905014156102355760206040519081016040528060008152506020604051908101604052806000815250925092506103a1565b600060016000805490500381548110151561024c57fe5b906000526020600020906003020190508060000181600201818054600181600116156101000203166002900480601f0160208091040260200160405190810160405280929190818152602001828054600181600116156101000203166002900480156102f95780601f106102ce576101008083540402835291602001916102f9565b820191906000526020600020905b8154815290600101906020018083116102dc57829003601f168201915b50505050509150808054600181600116156101000203166002900480601f0160208091040260200160405190810160405280929190818152602001828054600181600116156101000203166002900480156103955780601f1061036a57610100808354040283529160200191610395565b820191906000526020600020905b81548152906001019060200180831161037857829003601f168201915b50505050509050925092505b509091565b600080548060010182816103ba919061049d565b916000526020600020906003020160006060604051908101604052808681526020013373ffffffffffffffffffffffffffffffffffffffff168152602001858152509091909150600082015181600001908051906020019061041d9291906104cf565b5060208201518160010160006101000a81548173ffffffffffffffffffffffffffffffffffffffff021916908373ffffffffffffffffffffffffffffffffffffffff16021790555060408201518160020190805190602001906104819291906104cf565b505050505050565b602060405190810160405280600081525090565b8154818355818115116104ca576003028160030283600052602060002091820191016104c9919061054f565b5b505050565b828054600181600116156101000203166002900490600052602060002090601f016020900481019282601f1061051057805160ff191683800117855561053e565b8280016001018555821561053e579182015b8281111561053d578251825591602001919060010190610522565b5b50905061054b91906105b5565b5090565b6105b291905b808211156105ae576000808201600061056e91906105da565b6001820160006101000a81549073ffffffffffffffffffffffffffffffffffffffff02191690556002820160006105a591906105da565b50600301610555565b5090565b90565b6105d791905b808211156105d35760008160009055506001016105bb565b5090565b90565b50805460018160011615610100020316600290046000825580601f10610600575061061f565b601f01602090049060005260206000209081019061061e91906105b5565b5b505600a165627a7a723058201aca12985928d1404943b58e1d55f1b6e0fbe5320e603be78daedfba8f46de520029",
  "source": "pragma solidity ^0.4.17;\r\n\r\ncontract Adoption {\r\n    struct Message {\r\n        string word; // 留言\r\n        address from; // 留言者地址\r\n        string timestamp ; // 留言unix时间戳\r\n    }\r\n\r\n    Message[] private wordArr;\r\n\r\n    function setWord(string s, string t) public {\r\n        wordArr.push(Message({\r\n            word: s,\r\n            from: msg.sender,\r\n            timestamp: t\r\n        }));\r\n    }\r\n\r\n    function getAllWord() public view returns (string, string ) {\r\n\t\tif (wordArr.length == 0) {\r\n\t\t\treturn (\"\", \"\");\r\n\t\t}\r\n\t\tMessage storage result = wordArr[wordArr.length - 1];\r\n        return (result.word, result.timestamp);\r\n    }\r\n}",
  "sourcePath": "E:\\biwei\\pet\\contracts\\Adoption.sol",
  "compiler": {
    "name": "solc",
    "version": "0.4.19+commit.c4cbbb05.Emscripten.clang"
  },
  "schemaVersion": "2.0.0",
  "updatedAt": "2018-03-21T03:55:59.567Z"
}